{
  "_format": "hh-sol-artifact-1",
  "contractName": "ExperienceCertificateNFT",
  "sourceName": "contracts/ExperienceCertificateNFT.sol",
  "abi": [
    {
      "inputs": [],
      "stateMutability": "nonpayable",
      "type": "constructor"
    },
    {
      "anonymous": false,
      "inputs": [
        {
          "indexed": true,
          "internalType": "address",
          "name": "owner",
          "type": "address"
        },
        {
          "indexed": true,
          "internalType": "address",
          "name": "approved",
          "type": "address"
        },
        {
          "indexed": true,
          "internalType": "uint256",
          "name": "tokenId",
          "type": "uint256"
        }
      ],
      "name": "Approval",
      "type": "event"
    },
    {
      "anonymous": false,
      "inputs": [
        {
          "indexed": true,
          "internalType": "address",
          "name": "owner",
          "type": "address"
        },
        {
          "indexed": true,
          "internalType": "address",
          "name": "operator",
          "type": "address"
        },
        {
          "indexed": false,
          "internalType": "bool",
          "name": "approved",
          "type": "bool"
        }
      ],
      "name": "ApprovalForAll",
      "type": "event"
    },
    {
      "anonymous": false,
      "inputs": [
        {
          "indexed": true,
          "internalType": "address",
          "name": "from",
          "type": "address"
        },
        {
          "indexed": true,
          "internalType": "address",
          "name": "to",
          "type": "address"
        },
        {
          "indexed": true,
          "internalType": "uint256",
          "name": "tokenId",
          "type": "uint256"
        }
      ],
      "name": "Transfer",
      "type": "event"
    },
    {
      "inputs": [
        {
          "internalType": "address",
          "name": "to",
          "type": "address"
        },
        {
          "internalType": "uint256",
          "name": "tokenId",
          "type": "uint256"
        }
      ],
      "name": "approve",
      "outputs": [],
      "stateMutability": "nonpayable",
      "type": "function"
    },
    {
      "inputs": [
        {
          "internalType": "address",
          "name": "owner",
          "type": "address"
        }
      ],
      "name": "balanceOf",
      "outputs": [
        {
          "internalType": "uint256",
          "name": "",
          "type": "uint256"
        }
      ],
      "stateMutability": "view",
      "type": "function"
    },
    {
      "inputs": [
        {
          "internalType": "uint256",
          "name": "tokenId",
          "type": "uint256"
        }
      ],
      "name": "getApproved",
      "outputs": [
        {
          "internalType": "address",
          "name": "",
          "type": "address"
        }
      ],
      "stateMutability": "view",
      "type": "function"
    },
    {
      "inputs": [
        {
          "internalType": "uint256",
          "name": "tokenId",
          "type": "uint256"
        }
      ],
      "name": "getCertificateById",
      "outputs": [
        {
          "internalType": "uint256",
          "name": "",
          "type": "uint256"
        },
        {
          "internalType": "address payable",
          "name": "",
          "type": "address"
        },
        {
          "internalType": "address payable",
          "name": "",
          "type": "address"
        },
        {
          "internalType": "string",
          "name": "",
          "type": "string"
        },
        {
          "internalType": "string",
          "name": "",
          "type": "string"
        },
        {
          "internalType": "string",
          "name": "",
          "type": "string"
        },
        {
          "internalType": "string",
          "name": "",
          "type": "string"
        },
        {
          "internalType": "string",
          "name": "",
          "type": "string"
        }
      ],
      "stateMutability": "view",
      "type": "function"
    },
    {
      "inputs": [
        {
          "internalType": "address",
          "name": "employee",
          "type": "address"
        }
      ],
      "name": "getEmployeeCertificates",
      "outputs": [
        {
          "components": [
            {
              "internalType": "uint256",
              "name": "tokenId",
              "type": "uint256"
            },
            {
              "internalType": "address payable",
              "name": "issuer",
              "type": "address"
            },
            {
              "internalType": "address payable",
              "name": "employee",
              "type": "address"
            },
            {
              "internalType": "string",
              "name": "company",
              "type": "string"
            },
            {
              "internalType": "string",
              "name": "employeeName",
              "type": "string"
            },
            {
              "internalType": "string",
              "name": "description",
              "type": "string"
            },
            {
              "internalType": "string",
              "name": "startDate",
              "type": "string"
            },
            {
              "internalType": "string",
              "name": "endDate",
              "type": "string"
            }
          ],
          "internalType": "struct ExperienceCertificateNFT.ExperienceCertificate[]",
          "name": "",
          "type": "tuple[]"
        }
      ],
      "stateMutability": "view",
      "type": "function"
    },
    {
      "inputs": [
        {
          "internalType": "address",
          "name": "owner",
          "type": "address"
        },
        {
          "internalType": "address",
          "name": "operator",
          "type": "address"
        }
      ],
      "name": "isApprovedForAll",
      "outputs": [
        {
          "internalType": "bool",
          "name": "",
          "type": "bool"
        }
      ],
      "stateMutability": "view",
      "type": "function"
    },
    {
      "inputs": [
        {
          "internalType": "address",
          "name": "receiver",
          "type": "address"
        },
        {
          "internalType": "string",
          "name": "company",
          "type": "string"
        },
        {
          "internalType": "string",
          "name": "employeeName",
          "type": "string"
        },
        {
          "internalType": "string",
          "name": "description",
          "type": "string"
        },
        {
          "internalType": "string",
          "name": "startDate",
          "type": "string"
        },
        {
          "internalType": "string",
          "name": "endDate",
          "type": "string"
        }
      ],
      "name": "issueCertificate",
      "outputs": [
        {
          "internalType": "uint256",
          "name": "",
          "type": "uint256"
        }
      ],
      "stateMutability": "payable",
      "type": "function"
    },
    {
      "inputs": [],
      "name": "name",
      "outputs": [
        {
          "internalType": "string",
          "name": "",
          "type": "string"
        }
      ],
      "stateMutability": "view",
      "type": "function"
    },
    {
      "inputs": [
        {
          "internalType": "uint256",
          "name": "tokenId",
          "type": "uint256"
        }
      ],
      "name": "ownerOf",
      "outputs": [
        {
          "internalType": "address",
          "name": "",
          "type": "address"
        }
      ],
      "stateMutability": "view",
      "type": "function"
    },
    {
      "inputs": [
        {
          "internalType": "address",
          "name": "from",
          "type": "address"
        },
        {
          "internalType": "address",
          "name": "to",
          "type": "address"
        },
        {
          "internalType": "uint256",
          "name": "tokenId",
          "type": "uint256"
        }
      ],
      "name": "safeTransferFrom",
      "outputs": [],
      "stateMutability": "nonpayable",
      "type": "function"
    },
    {
      "inputs": [
        {
          "internalType": "address",
          "name": "from",
          "type": "address"
        },
        {
          "internalType": "address",
          "name": "to",
          "type": "address"
        },
        {
          "internalType": "uint256",
          "name": "tokenId",
          "type": "uint256"
        },
        {
          "internalType": "bytes",
          "name": "data",
          "type": "bytes"
        }
      ],
      "name": "safeTransferFrom",
      "outputs": [],
      "stateMutability": "nonpayable",
      "type": "function"
    },
    {
      "inputs": [
        {
          "internalType": "address",
          "name": "operator",
          "type": "address"
        },
        {
          "internalType": "bool",
          "name": "approved",
          "type": "bool"
        }
      ],
      "name": "setApprovalForAll",
      "outputs": [],
      "stateMutability": "nonpayable",
      "type": "function"
    },
    {
      "inputs": [
        {
          "internalType": "bytes4",
          "name": "interfaceId",
          "type": "bytes4"
        }
      ],
      "name": "supportsInterface",
      "outputs": [
        {
          "internalType": "bool",
          "name": "",
          "type": "bool"
        }
      ],
      "stateMutability": "view",
      "type": "function"
    },
    {
      "inputs": [],
      "name": "symbol",
      "outputs": [
        {
          "internalType": "string",
          "name": "",
          "type": "string"
        }
      ],
      "stateMutability": "view",
      "type": "function"
    },
    {
      "inputs": [
        {
          "internalType": "uint256",
          "name": "tokenId",
          "type": "uint256"
        }
      ],
      "name": "tokenURI",
      "outputs": [
        {
          "internalType": "string",
          "name": "",
          "type": "string"
        }
      ],
      "stateMutability": "view",
      "type": "function"
    },
    {
      "inputs": [
        {
          "internalType": "address",
          "name": "from",
          "type": "address"
        },
        {
          "internalType": "address",
          "name": "to",
          "type": "address"
        },
        {
          "internalType": "uint256",
          "name": "tokenId",
          "type": "uint256"
        }
      ],
      "name": "transferFrom",
      "outputs": [],
      "stateMutability": "nonpayable",
      "type": "function"
    },
    {
      "inputs": [
        {
          "internalType": "uint256",
          "name": "tokenId",
          "type": "uint256"
        },
        {
          "internalType": "address",
          "name": "issuer",
          "type": "address"
        }
      ],
      "name": "verifyCertificateAuthenticity",
      "outputs": [
        {
          "internalType": "bool",
          "name": "",
          "type": "bool"
        }
      ],
      "stateMutability": "view",
      "type": "function"
    },
    {
      "inputs": [
        {
          "internalType": "uint256",
          "name": "tokenId",
          "type": "uint256"
        },
        {
          "internalType": "address",
          "name": "employee",
          "type": "address"
        }
      ],
      "name": "verifyEmployeeAuthenticity",
      "outputs": [
        {
          "internalType": "bool",
          "name": "",
          "type": "bool"
        }
      ],
      "stateMutability": "view",
      "type": "function"
    }
  ],
  "bytecode": "0x60806040523480156200001157600080fd5b506040518060400160405280601681526020017f457870657269656e6365436572746966696361746573000000000000000000008152506040518060400160405280600381526020017f455850000000000000000000000000000000000000000000000000000000000081525081600090816200008f919062000324565b508060019081620000a1919062000324565b5050506200040b565b600081519050919050565b7f4e487b7100000000000000000000000000000000000000000000000000000000600052604160045260246000fd5b7f4e487b7100000000000000000000000000000000000000000000000000000000600052602260045260246000fd5b600060028204905060018216806200012c57607f821691505b602082108103620001425762000141620000e4565b5b50919050565b60008190508160005260206000209050919050565b60006020601f8301049050919050565b600082821b905092915050565b600060088302620001ac7fffffffffffffffffffffffffffffffffffffffffffffffffffffffffffffffff826200016d565b620001b886836200016d565b95508019841693508086168417925050509392505050565b6000819050919050565b6000819050919050565b600062000205620001ff620001f984620001d0565b620001da565b620001d0565b9050919050565b6000819050919050565b6200022183620001e4565b6200023962000230826200020c565b8484546200017a565b825550505050565b600090565b6200025062000241565b6200025d81848462000216565b505050565b5b8181101562000285576200027960008262000246565b60018101905062000263565b5050565b601f821115620002d4576200029e8162000148565b620002a9846200015d565b81016020851015620002b9578190505b620002d1620002c8856200015d565b83018262000262565b50505b505050565b600082821c905092915050565b6000620002f960001984600802620002d9565b1980831691505092915050565b6000620003148383620002e6565b9150826002028217905092915050565b6200032f82620000aa565b67ffffffffffffffff8111156200034b576200034a620000b5565b5b62000357825462000113565b6200036482828562000289565b600060209050601f8311600181146200039c576000841562000387578287015190505b62000393858262000306565b86555062000403565b601f198416620003ac8662000148565b60005b82811015620003d657848901518255600182019150602085019450602081019050620003af565b86831015620003f65784890151620003f2601f891682620002e6565b8355505b6001600288020188555050505b505050505050565b613c08806200041b6000396000f3fe6080604052600436106101095760003560e01c806395d89b4111610095578063b88d4fde11610064578063b88d4fde146103ba578063c87b56dd146103e3578063de8c98fd14610420578063e985e9c514610450578063f01597201461048d57610109565b806395d89b41146102e55780639d735caf14610310578063a22cb46514610354578063a47d31e81461037d57610109565b806313ca6af0116100dc57806313ca6af0146101dc57806323b872dd1461021957806342842e0e146102425780636352211e1461026b57806370a08231146102a857610109565b806301ffc9a71461010e57806306fdde031461014b578063081812fc14610176578063095ea7b3146101b3575b600080fd5b34801561011a57600080fd5b50610135600480360381019061013091906126d8565b6104ca565b6040516101429190612720565b60405180910390f35b34801561015757600080fd5b506101606105ac565b60405161016d91906127cb565b60405180910390f35b34801561018257600080fd5b5061019d60048036038101906101989190612823565b61063e565b6040516101aa9190612891565b60405180910390f35b3480156101bf57600080fd5b506101da60048036038101906101d591906128d8565b610684565b005b3480156101e857600080fd5b5061020360048036038101906101fe9190612918565b61079b565b6040516102109190612720565b60405180910390f35b34801561022557600080fd5b50610240600480360381019061023b9190612958565b61080a565b005b34801561024e57600080fd5b5061026960048036038101906102649190612958565b61086a565b005b34801561027757600080fd5b50610292600480360381019061028d9190612823565b61088a565b60405161029f9190612891565b60405180910390f35b3480156102b457600080fd5b506102cf60048036038101906102ca91906129ab565b610910565b6040516102dc91906129e7565b60405180910390f35b3480156102f157600080fd5b506102fa6109c7565b60405161030791906127cb565b60405180910390f35b34801561031c57600080fd5b5061033760048036038101906103329190612823565b610a59565b60405161034b989796959493929190612a23565b60405180910390f35b34801561036057600080fd5b5061037b60048036038101906103769190612af0565b610e5d565b005b34801561038957600080fd5b506103a4600480360381019061039f91906129ab565b610e73565b6040516103b19190612d26565b60405180910390f35b3480156103c657600080fd5b506103e160048036038101906103dc9190612e7d565b61147d565b005b3480156103ef57600080fd5b5061040a60048036038101906104059190612823565b6114df565b60405161041791906127cb565b60405180910390f35b61043a60048036038101906104359190612fa1565b611547565b60405161044791906129e7565b60405180910390f35b34801561045c57600080fd5b50610477600480360381019061047291906130ba565b611706565b6040516104849190612720565b60405180910390f35b34801561049957600080fd5b506104b460048036038101906104af9190612918565b61179a565b6040516104c19190612720565b60405180910390f35b60007f80ac58cd000000000000000000000000000000000000000000000000000000007bffffffffffffffffffffffffffffffffffffffffffffffffffffffff1916827bffffffffffffffffffffffffffffffffffffffffffffffffffffffff1916148061059557507f5b5e139f000000000000000000000000000000000000000000000000000000007bffffffffffffffffffffffffffffffffffffffffffffffffffffffff1916827bffffffffffffffffffffffffffffffffffffffffffffffffffffffff1916145b806105a557506105a482611809565b5b9050919050565b6060600080546105bb90613129565b80601f01602080910402602001604051908101604052809291908181526020018280546105e790613129565b80156106345780601f1061060957610100808354040283529160200191610634565b820191906000526020600020905b81548152906001019060200180831161061757829003601f168201915b5050505050905090565b600061064982611873565b6004600083815260200190815260200160002060009054906101000a900473ffffffffffffffffffffffffffffffffffffffff169050919050565b600061068f8261088a565b90508073ffffffffffffffffffffffffffffffffffffffff168373ffffffffffffffffffffffffffffffffffffffff16036106ff576040517f08c379a00000000000000000000000000000000000000000000000000000000081526004016106f6906131cc565b60405180910390fd5b8073ffffffffffffffffffffffffffffffffffffffff1661071e6118be565b73ffffffffffffffffffffffffffffffffffffffff16148061074d575061074c816107476118be565b611706565b5b61078c576040517f08c379a00000000000000000000000000000000000000000000000000000000081526004016107839061325e565b60405180910390fd5b61079683836118c6565b505050565b60008173ffffffffffffffffffffffffffffffffffffffff166007600085815260200190815260200160002060010160009054906101000a900473ffffffffffffffffffffffffffffffffffffffff1673ffffffffffffffffffffffffffffffffffffffff1614905092915050565b61081b6108156118be565b8261197f565b61085a576040517f08c379a0000000000000000000000000000000000000000000000000000000008152600401610851906132f0565b60405180910390fd5b610865838383611a14565b505050565b6108858383836040518060200160405280600081525061147d565b505050565b60008061089683611d0d565b9050600073ffffffffffffffffffffffffffffffffffffffff168173ffffffffffffffffffffffffffffffffffffffff1603610907576040517f08c379a00000000000000000000000000000000000000000000000000000000081526004016108fe9061335c565b60405180910390fd5b80915050919050565b60008073ffffffffffffffffffffffffffffffffffffffff168273ffffffffffffffffffffffffffffffffffffffff1603610980576040517f08c379a0000000000000000000000000000000000000000000000000000000008152600401610977906133ee565b60405180910390fd5b600360008373ffffffffffffffffffffffffffffffffffffffff1673ffffffffffffffffffffffffffffffffffffffff168152602001908152602001600020549050919050565b6060600180546109d690613129565b80601f0160208091040260200160405190810160405280929190818152602001828054610a0290613129565b8015610a4f5780601f10610a2457610100808354040283529160200191610a4f565b820191906000526020600020905b815481529060010190602001808311610a3257829003601f168201915b5050505050905090565b600080600060608060608060606000600760008b815260200190815260200160002060405180610100016040529081600082015481526020016001820160009054906101000a900473ffffffffffffffffffffffffffffffffffffffff1673ffffffffffffffffffffffffffffffffffffffff1673ffffffffffffffffffffffffffffffffffffffff1681526020016002820160009054906101000a900473ffffffffffffffffffffffffffffffffffffffff1673ffffffffffffffffffffffffffffffffffffffff1673ffffffffffffffffffffffffffffffffffffffff168152602001600382018054610b4d90613129565b80601f0160208091040260200160405190810160405280929190818152602001828054610b7990613129565b8015610bc65780601f10610b9b57610100808354040283529160200191610bc6565b820191906000526020600020905b815481529060010190602001808311610ba957829003601f168201915b50505050508152602001600482018054610bdf90613129565b80601f0160208091040260200160405190810160405280929190818152602001828054610c0b90613129565b8015610c585780601f10610c2d57610100808354040283529160200191610c58565b820191906000526020600020905b815481529060010190602001808311610c3b57829003601f168201915b50505050508152602001600582018054610c7190613129565b80601f0160208091040260200160405190810160405280929190818152602001828054610c9d90613129565b8015610cea5780601f10610cbf57610100808354040283529160200191610cea565b820191906000526020600020905b815481529060010190602001808311610ccd57829003601f168201915b50505050508152602001600682018054610d0390613129565b80601f0160208091040260200160405190810160405280929190818152602001828054610d2f90613129565b8015610d7c5780601f10610d5157610100808354040283529160200191610d7c565b820191906000526020600020905b815481529060010190602001808311610d5f57829003601f168201915b50505050508152602001600782018054610d9590613129565b80601f0160208091040260200160405190810160405280929190818152602001828054610dc190613129565b8015610e0e5780601f10610de357610100808354040283529160200191610e0e565b820191906000526020600020905b815481529060010190602001808311610df157829003601f168201915b5050505050815250509050806000015181602001518260400151836060015184608001518560a001518660c001518760e001519850985098509850985098509850985050919395975091939597565b610e6f610e686118be565b8383611d4a565b5050565b60606000610e816006611eb6565b905060008060005b83811015610f285760076000600183610ea2919061343d565b815260200190815260200160002060020160009054906101000a900473ffffffffffffffffffffffffffffffffffffffff1673ffffffffffffffffffffffffffffffffffffffff168673ffffffffffffffffffffffffffffffffffffffff1603610f15578280610f1190613471565b9350505b8080610f2090613471565b915050610e89565b5060008203610f9057600067ffffffffffffffff811115610f4c57610f4b612d52565b5b604051908082528060200260200182016040528015610f8557816020015b610f726125fb565b815260200190600190039081610f6a5790505b509350505050611478565b60008267ffffffffffffffff811115610fac57610fab612d52565b5b604051908082528060200260200182016040528015610fe557816020015b610fd26125fb565b815260200190600190039081610fca5790505b50905060005b8481101561146f5760076000600183611004919061343d565b815260200190815260200160002060020160009054906101000a900473ffffffffffffffffffffffffffffffffffffffff1673ffffffffffffffffffffffffffffffffffffffff168773ffffffffffffffffffffffffffffffffffffffff160361145c576000600182611077919061343d565b905060006007600083815260200190815260200160002090508060405180610100016040529081600082015481526020016001820160009054906101000a900473ffffffffffffffffffffffffffffffffffffffff1673ffffffffffffffffffffffffffffffffffffffff1673ffffffffffffffffffffffffffffffffffffffff1681526020016002820160009054906101000a900473ffffffffffffffffffffffffffffffffffffffff1673ffffffffffffffffffffffffffffffffffffffff1673ffffffffffffffffffffffffffffffffffffffff16815260200160038201805461116390613129565b80601f016020809104026020016040519081016040528092919081815260200182805461118f90613129565b80156111dc5780601f106111b1576101008083540402835291602001916111dc565b820191906000526020600020905b8154815290600101906020018083116111bf57829003601f168201915b505050505081526020016004820180546111f590613129565b80601f016020809104026020016040519081016040528092919081815260200182805461122190613129565b801561126e5780601f106112435761010080835404028352916020019161126e565b820191906000526020600020905b81548152906001019060200180831161125157829003601f168201915b5050505050815260200160058201805461128790613129565b80601f01602080910402602001604051908101604052809291908181526020018280546112b390613129565b80156113005780601f106112d557610100808354040283529160200191611300565b820191906000526020600020905b8154815290600101906020018083116112e357829003601f168201915b5050505050815260200160068201805461131990613129565b80601f016020809104026020016040519081016040528092919081815260200182805461134590613129565b80156113925780601f1061136757610100808354040283529160200191611392565b820191906000526020600020905b81548152906001019060200180831161137557829003601f168201915b505050505081526020016007820180546113ab90613129565b80601f01602080910402602001604051908101604052809291908181526020018280546113d790613129565b80156114245780601f106113f957610100808354040283529160200191611424565b820191906000526020600020905b81548152906001019060200180831161140757829003601f168201915b5050505050815250508486815181106114405761143f6134b9565b5b6020026020010181905250848061145690613471565b95505050505b808061146790613471565b915050610feb565b50809450505050505b919050565b61148e6114886118be565b8361197f565b6114cd576040517f08c379a00000000000000000000000000000000000000000000000000000000081526004016114c4906132f0565b60405180910390fd5b6114d984848484611ec4565b50505050565b60606114ea82611873565b60006114f4611f20565b90506000815111611514576040518060200160405280600081525061153f565b8061151e84611f37565b60405160200161152f929190613524565b6040516020818303038152906040525b915050919050565b60006115536006612005565b600061155f6006611eb6565b905061156b338261201b565b6040518061010001604052808281526020013373ffffffffffffffffffffffffffffffffffffffff1681526020018973ffffffffffffffffffffffffffffffffffffffff16815260200188815260200187815260200186815260200185815260200184815250600760008381526020019081526020016000206000820151816000015560208201518160010160006101000a81548173ffffffffffffffffffffffffffffffffffffffff021916908373ffffffffffffffffffffffffffffffffffffffff16021790555060408201518160020160006101000a81548173ffffffffffffffffffffffffffffffffffffffff021916908373ffffffffffffffffffffffffffffffffffffffff160217905550606082015181600301908161169191906136f4565b5060808201518160040190816116a791906136f4565b5060a08201518160050190816116bd91906136f4565b5060c08201518160060190816116d391906136f4565b5060e08201518160070190816116e991906136f4565b509050506116f8338983611a14565b809150509695505050505050565b6000600560008473ffffffffffffffffffffffffffffffffffffffff1673ffffffffffffffffffffffffffffffffffffffff16815260200190815260200160002060008373ffffffffffffffffffffffffffffffffffffffff1673ffffffffffffffffffffffffffffffffffffffff16815260200190815260200160002060009054906101000a900460ff16905092915050565b60008173ffffffffffffffffffffffffffffffffffffffff166007600085815260200190815260200160002060020160009054906101000a900473ffffffffffffffffffffffffffffffffffffffff1673ffffffffffffffffffffffffffffffffffffffff1614905092915050565b60007f01ffc9a7000000000000000000000000000000000000000000000000000000007bffffffffffffffffffffffffffffffffffffffffffffffffffffffff1916827bffffffffffffffffffffffffffffffffffffffffffffffffffffffff1916149050919050565b61187c81612039565b6118bb576040517f08c379a00000000000000000000000000000000000000000000000000000000081526004016118b29061335c565b60405180910390fd5b50565b600033905090565b816004600083815260200190815260200160002060006101000a81548173ffffffffffffffffffffffffffffffffffffffff021916908373ffffffffffffffffffffffffffffffffffffffff160217905550808273ffffffffffffffffffffffffffffffffffffffff166119398361088a565b73ffffffffffffffffffffffffffffffffffffffff167f8c5be1e5ebec7d5bd14f71427d1e84f3dd0314c0f7b2291e5b200ac8c7c3b92560405160405180910390a45050565b60008061198b8361088a565b90508073ffffffffffffffffffffffffffffffffffffffff168473ffffffffffffffffffffffffffffffffffffffff1614806119cd57506119cc8185611706565b5b80611a0b57508373ffffffffffffffffffffffffffffffffffffffff166119f38461063e565b73ffffffffffffffffffffffffffffffffffffffff16145b91505092915050565b8273ffffffffffffffffffffffffffffffffffffffff16611a348261088a565b73ffffffffffffffffffffffffffffffffffffffff1614611a8a576040517f08c379a0000000000000000000000000000000000000000000000000000000008152600401611a8190613838565b60405180910390fd5b600073ffffffffffffffffffffffffffffffffffffffff168273ffffffffffffffffffffffffffffffffffffffff1603611af9576040517f08c379a0000000000000000000000000000000000000000000000000000000008152600401611af0906138ca565b60405180910390fd5b611b06838383600161207a565b8273ffffffffffffffffffffffffffffffffffffffff16611b268261088a565b73ffffffffffffffffffffffffffffffffffffffff1614611b7c576040517f08c379a0000000000000000000000000000000000000000000000000000000008152600401611b7390613838565b60405180910390fd5b6004600082815260200190815260200160002060006101000a81549073ffffffffffffffffffffffffffffffffffffffff02191690556001600360008573ffffffffffffffffffffffffffffffffffffffff1673ffffffffffffffffffffffffffffffffffffffff168152602001908152602001600020600082825403925050819055506001600360008473ffffffffffffffffffffffffffffffffffffffff1673ffffffffffffffffffffffffffffffffffffffff16815260200190815260200160002060008282540192505081905550816002600083815260200190815260200160002060006101000a81548173ffffffffffffffffffffffffffffffffffffffff021916908373ffffffffffffffffffffffffffffffffffffffff160217905550808273ffffffffffffffffffffffffffffffffffffffff168473ffffffffffffffffffffffffffffffffffffffff167fddf252ad1be2c89b69c2b068fc378daa952ba7f163c4a11628f55a4df523b3ef60405160405180910390a4611d088383836001612080565b505050565b60006002600083815260200190815260200160002060009054906101000a900473ffffffffffffffffffffffffffffffffffffffff169050919050565b8173ffffffffffffffffffffffffffffffffffffffff168373ffffffffffffffffffffffffffffffffffffffff1603611db8576040517f08c379a0000000000000000000000000000000000000000000000000000000008152600401611daf90613936565b60405180910390fd5b80600560008573ffffffffffffffffffffffffffffffffffffffff1673ffffffffffffffffffffffffffffffffffffffff16815260200190815260200160002060008473ffffffffffffffffffffffffffffffffffffffff1673ffffffffffffffffffffffffffffffffffffffff16815260200190815260200160002060006101000a81548160ff0219169083151502179055508173ffffffffffffffffffffffffffffffffffffffff168373ffffffffffffffffffffffffffffffffffffffff167f17307eab39ab6107e8899845ad3d59bd9653f200f220920489ca2b5937696c3183604051611ea99190612720565b60405180910390a3505050565b600081600001549050919050565b611ecf848484611a14565b611edb84848484612086565b611f1a576040517f08c379a0000000000000000000000000000000000000000000000000000000008152600401611f11906139c8565b60405180910390fd5b50505050565b606060405180602001604052806000815250905090565b606060006001611f468461220d565b01905060008167ffffffffffffffff811115611f6557611f64612d52565b5b6040519080825280601f01601f191660200182016040528015611f975781602001600182028036833780820191505090505b509050600082602001820190505b600115611ffa578080600190039150507f3031323334353637383961626364656600000000000000000000000000000000600a86061a8153600a8581611fee57611fed6139e8565b5b04945060008503611fa5575b819350505050919050565b6001816000016000828254019250508190555050565b612035828260405180602001604052806000815250612360565b5050565b60008073ffffffffffffffffffffffffffffffffffffffff1661205b83611d0d565b73ffffffffffffffffffffffffffffffffffffffff1614159050919050565b50505050565b50505050565b60006120a78473ffffffffffffffffffffffffffffffffffffffff166123bb565b15612200578373ffffffffffffffffffffffffffffffffffffffff1663150b7a026120d06118be565b8786866040518563ffffffff1660e01b81526004016120f29493929190613a6c565b6020604051808303816000875af192505050801561212e57506040513d601f19601f8201168201806040525081019061212b9190613acd565b60015b6121b0573d806000811461215e576040519150601f19603f3d011682016040523d82523d6000602084013e612163565b606091505b5060008151036121a8576040517f08c379a000000000000000000000000000000000000000000000000000000000815260040161219f906139c8565b60405180910390fd5b805181602001fd5b63150b7a0260e01b7bffffffffffffffffffffffffffffffffffffffffffffffffffffffff1916817bffffffffffffffffffffffffffffffffffffffffffffffffffffffff191614915050612205565b600190505b949350505050565b600080600090507a184f03e93ff9f4daa797ed6e38ed64bf6a1f010000000000000000831061226b577a184f03e93ff9f4daa797ed6e38ed64bf6a1f0100000000000000008381612261576122606139e8565b5b0492506040810190505b6d04ee2d6d415b85acef810000000083106122a8576d04ee2d6d415b85acef8100000000838161229e5761229d6139e8565b5b0492506020810190505b662386f26fc1000083106122d757662386f26fc1000083816122cd576122cc6139e8565b5b0492506010810190505b6305f5e1008310612300576305f5e10083816122f6576122f56139e8565b5b0492506008810190505b612710831061232557612710838161231b5761231a6139e8565b5b0492506004810190505b60648310612348576064838161233e5761233d6139e8565b5b0492506002810190505b600a8310612357576001810190505b80915050919050565b61236a83836123de565b6123776000848484612086565b6123b6576040517f08c379a00000000000000000000000000000000000000000000000000000000081526004016123ad906139c8565b60405180910390fd5b505050565b6000808273ffffffffffffffffffffffffffffffffffffffff163b119050919050565b600073ffffffffffffffffffffffffffffffffffffffff168273ffffffffffffffffffffffffffffffffffffffff160361244d576040517f08c379a000000000000000000000000000000000000000000000000000000000815260040161244490613b46565b60405180910390fd5b61245681612039565b15612496576040517f08c379a000000000000000000000000000000000000000000000000000000000815260040161248d90613bb2565b60405180910390fd5b6124a460008383600161207a565b6124ad81612039565b156124ed576040517f08c379a00000000000000000000000000000000000000000000000000000000081526004016124e490613bb2565b60405180910390fd5b6001600360008473ffffffffffffffffffffffffffffffffffffffff1673ffffffffffffffffffffffffffffffffffffffff16815260200190815260200160002060008282540192505081905550816002600083815260200190815260200160002060006101000a81548173ffffffffffffffffffffffffffffffffffffffff021916908373ffffffffffffffffffffffffffffffffffffffff160217905550808273ffffffffffffffffffffffffffffffffffffffff16600073ffffffffffffffffffffffffffffffffffffffff167fddf252ad1be2c89b69c2b068fc378daa952ba7f163c4a11628f55a4df523b3ef60405160405180910390a46125f7600083836001612080565b5050565b60405180610100016040528060008152602001600073ffffffffffffffffffffffffffffffffffffffff168152602001600073ffffffffffffffffffffffffffffffffffffffff16815260200160608152602001606081526020016060815260200160608152602001606081525090565b6000604051905090565b600080fd5b600080fd5b60007fffffffff0000000000000000000000000000000000000000000000000000000082169050919050565b6126b581612680565b81146126c057600080fd5b50565b6000813590506126d2816126ac565b92915050565b6000602082840312156126ee576126ed612676565b5b60006126fc848285016126c3565b91505092915050565b60008115159050919050565b61271a81612705565b82525050565b60006020820190506127356000830184612711565b92915050565b600081519050919050565b600082825260208201905092915050565b60005b8381101561277557808201518184015260208101905061275a565b60008484015250505050565b6000601f19601f8301169050919050565b600061279d8261273b565b6127a78185612746565b93506127b7818560208601612757565b6127c081612781565b840191505092915050565b600060208201905081810360008301526127e58184612792565b905092915050565b6000819050919050565b612800816127ed565b811461280b57600080fd5b50565b60008135905061281d816127f7565b92915050565b60006020828403121561283957612838612676565b5b60006128478482850161280e565b91505092915050565b600073ffffffffffffffffffffffffffffffffffffffff82169050919050565b600061287b82612850565b9050919050565b61288b81612870565b82525050565b60006020820190506128a66000830184612882565b92915050565b6128b581612870565b81146128c057600080fd5b50565b6000813590506128d2816128ac565b92915050565b600080604083850312156128ef576128ee612676565b5b60006128fd858286016128c3565b925050602061290e8582860161280e565b9150509250929050565b6000806040838503121561292f5761292e612676565b5b600061293d8582860161280e565b925050602061294e858286016128c3565b9150509250929050565b60008060006060848603121561297157612970612676565b5b600061297f868287016128c3565b9350506020612990868287016128c3565b92505060406129a18682870161280e565b9150509250925092565b6000602082840312156129c1576129c0612676565b5b60006129cf848285016128c3565b91505092915050565b6129e1816127ed565b82525050565b60006020820190506129fc60008301846129d8565b92915050565b6000612a0d82612850565b9050919050565b612a1d81612a02565b82525050565b600061010082019050612a39600083018b6129d8565b612a46602083018a612a14565b612a536040830189612a14565b8181036060830152612a658188612792565b90508181036080830152612a798187612792565b905081810360a0830152612a8d8186612792565b905081810360c0830152612aa18185612792565b905081810360e0830152612ab58184612792565b90509998505050505050505050565b612acd81612705565b8114612ad857600080fd5b50565b600081359050612aea81612ac4565b92915050565b60008060408385031215612b0757612b06612676565b5b6000612b15858286016128c3565b9250506020612b2685828601612adb565b9150509250929050565b600081519050919050565b600082825260208201905092915050565b6000819050602082019050919050565b612b65816127ed565b82525050565b612b7481612a02565b82525050565b600082825260208201905092915050565b6000612b968261273b565b612ba08185612b7a565b9350612bb0818560208601612757565b612bb981612781565b840191505092915050565b600061010083016000830151612bdd6000860182612b5c565b506020830151612bf06020860182612b6b565b506040830151612c036040860182612b6b565b5060608301518482036060860152612c1b8282612b8b565b91505060808301518482036080860152612c358282612b8b565b91505060a083015184820360a0860152612c4f8282612b8b565b91505060c083015184820360c0860152612c698282612b8b565b91505060e083015184820360e0860152612c838282612b8b565b9150508091505092915050565b6000612c9c8383612bc4565b905092915050565b6000602082019050919050565b6000612cbc82612b30565b612cc68185612b3b565b935083602082028501612cd885612b4c565b8060005b85811015612d145784840389528151612cf58582612c90565b9450612d0083612ca4565b925060208a01995050600181019050612cdc565b50829750879550505050505092915050565b60006020820190508181036000830152612d408184612cb1565b905092915050565b600080fd5b600080fd5b7f4e487b7100000000000000000000000000000000000000000000000000000000600052604160045260246000fd5b612d8a82612781565b810181811067ffffffffffffffff82111715612da957612da8612d52565b5b80604052505050565b6000612dbc61266c565b9050612dc88282612d81565b919050565b600067ffffffffffffffff821115612de857612de7612d52565b5b612df182612781565b9050602081019050919050565b82818337600083830152505050565b6000612e20612e1b84612dcd565b612db2565b905082815260208101848484011115612e3c57612e3b612d4d565b5b612e47848285612dfe565b509392505050565b600082601f830112612e6457612e63612d48565b5b8135612e74848260208601612e0d565b91505092915050565b60008060008060808587031215612e9757612e96612676565b5b6000612ea5878288016128c3565b9450506020612eb6878288016128c3565b9350506040612ec78782880161280e565b925050606085013567ffffffffffffffff811115612ee857612ee761267b565b5b612ef487828801612e4f565b91505092959194509250565b600067ffffffffffffffff821115612f1b57612f1a612d52565b5b612f2482612781565b9050602081019050919050565b6000612f44612f3f84612f00565b612db2565b905082815260208101848484011115612f6057612f5f612d4d565b5b612f6b848285612dfe565b509392505050565b600082601f830112612f8857612f87612d48565b5b8135612f98848260208601612f31565b91505092915050565b60008060008060008060c08789031215612fbe57612fbd612676565b5b6000612fcc89828a016128c3565b965050602087013567ffffffffffffffff811115612fed57612fec61267b565b5b612ff989828a01612f73565b955050604087013567ffffffffffffffff81111561301a5761301961267b565b5b61302689828a01612f73565b945050606087013567ffffffffffffffff8111156130475761304661267b565b5b61305389828a01612f73565b935050608087013567ffffffffffffffff8111156130745761307361267b565b5b61308089828a01612f73565b92505060a087013567ffffffffffffffff8111156130a1576130a061267b565b5b6130ad89828a01612f73565b9150509295509295509295565b600080604083850312156130d1576130d0612676565b5b60006130df858286016128c3565b92505060206130f0858286016128c3565b9150509250929050565b7f4e487b7100000000000000000000000000000000000000000000000000000000600052602260045260246000fd5b6000600282049050600182168061314157607f821691505b602082108103613154576131536130fa565b5b50919050565b7f4552433732313a20617070726f76616c20746f2063757272656e74206f776e6560008201527f7200000000000000000000000000000000000000000000000000000000000000602082015250565b60006131b6602183612746565b91506131c18261315a565b604082019050919050565b600060208201905081810360008301526131e5816131a9565b9050919050565b7f4552433732313a20617070726f76652063616c6c6572206973206e6f7420746f60008201527f6b656e206f776e6572206f7220617070726f76656420666f7220616c6c000000602082015250565b6000613248603d83612746565b9150613253826131ec565b604082019050919050565b600060208201905081810360008301526132778161323b565b9050919050565b7f4552433732313a2063616c6c6572206973206e6f7420746f6b656e206f776e6560008201527f72206f7220617070726f76656400000000000000000000000000000000000000602082015250565b60006132da602d83612746565b91506132e58261327e565b604082019050919050565b60006020820190508181036000830152613309816132cd565b9050919050565b7f4552433732313a20696e76616c696420746f6b656e2049440000000000000000600082015250565b6000613346601883612746565b915061335182613310565b602082019050919050565b6000602082019050818103600083015261337581613339565b9050919050565b7f4552433732313a2061646472657373207a65726f206973206e6f74206120766160008201527f6c6964206f776e65720000000000000000000000000000000000000000000000602082015250565b60006133d8602983612746565b91506133e38261337c565b604082019050919050565b60006020820190508181036000830152613407816133cb565b9050919050565b7f4e487b7100000000000000000000000000000000000000000000000000000000600052601160045260246000fd5b6000613448826127ed565b9150613453836127ed565b925082820190508082111561346b5761346a61340e565b5b92915050565b600061347c826127ed565b91507fffffffffffffffffffffffffffffffffffffffffffffffffffffffffffffffff82036134ae576134ad61340e565b5b600182019050919050565b7f4e487b7100000000000000000000000000000000000000000000000000000000600052603260045260246000fd5b600081905092915050565b60006134fe8261273b565b61350881856134e8565b9350613518818560208601612757565b80840191505092915050565b600061353082856134f3565b915061353c82846134f3565b91508190509392505050565b60008190508160005260206000209050919050565b60006020601f8301049050919050565b600082821b905092915050565b6000600883026135aa7fffffffffffffffffffffffffffffffffffffffffffffffffffffffffffffffff8261356d565b6135b4868361356d565b95508019841693508086168417925050509392505050565b6000819050919050565b60006135f16135ec6135e7846127ed565b6135cc565b6127ed565b9050919050565b6000819050919050565b61360b836135d6565b61361f613617826135f8565b84845461357a565b825550505050565b600090565b613634613627565b61363f818484613602565b505050565b5b818110156136635761365860008261362c565b600181019050613645565b5050565b601f8211156136a85761367981613548565b6136828461355d565b81016020851015613691578190505b6136a561369d8561355d565b830182613644565b50505b505050565b600082821c905092915050565b60006136cb600019846008026136ad565b1980831691505092915050565b60006136e483836136ba565b9150826002028217905092915050565b6136fd8261273b565b67ffffffffffffffff81111561371657613715612d52565b5b6137208254613129565b61372b828285613667565b600060209050601f83116001811461375e576000841561374c578287015190505b61375685826136d8565b8655506137be565b601f19841661376c86613548565b60005b828110156137945784890151825560018201915060208501945060208101905061376f565b868310156137b157848901516137ad601f8916826136ba565b8355505b6001600288020188555050505b505050505050565b7f4552433732313a207472616e736665722066726f6d20696e636f72726563742060008201527f6f776e6572000000000000000000000000000000000000000000000000000000602082015250565b6000613822602583612746565b915061382d826137c6565b604082019050919050565b6000602082019050818103600083015261385181613815565b9050919050565b7f4552433732313a207472616e7366657220746f20746865207a65726f2061646460008201527f7265737300000000000000000000000000000000000000000000000000000000602082015250565b60006138b4602483612746565b91506138bf82613858565b604082019050919050565b600060208201905081810360008301526138e3816138a7565b9050919050565b7f4552433732313a20617070726f766520746f2063616c6c657200000000000000600082015250565b6000613920601983612746565b915061392b826138ea565b602082019050919050565b6000602082019050818103600083015261394f81613913565b9050919050565b7f4552433732313a207472616e7366657220746f206e6f6e20455243373231526560008201527f63656976657220696d706c656d656e7465720000000000000000000000000000602082015250565b60006139b2603283612746565b91506139bd82613956565b604082019050919050565b600060208201905081810360008301526139e1816139a5565b9050919050565b7f4e487b7100000000000000000000000000000000000000000000000000000000600052601260045260246000fd5b600081519050919050565b600082825260208201905092915050565b6000613a3e82613a17565b613a488185613a22565b9350613a58818560208601612757565b613a6181612781565b840191505092915050565b6000608082019050613a816000830187612882565b613a8e6020830186612882565b613a9b60408301856129d8565b8181036060830152613aad8184613a33565b905095945050505050565b600081519050613ac7816126ac565b92915050565b600060208284031215613ae357613ae2612676565b5b6000613af184828501613ab8565b91505092915050565b7f4552433732313a206d696e7420746f20746865207a65726f2061646472657373600082015250565b6000613b30602083612746565b9150613b3b82613afa565b602082019050919050565b60006020820190508181036000830152613b5f81613b23565b9050919050565b7f4552433732313a20746f6b656e20616c7265616479206d696e74656400000000600082015250565b6000613b9c601c83612746565b9150613ba782613b66565b602082019050919050565b60006020820190508181036000830152613bcb81613b8f565b905091905056fea2646970667358221220d1d0b8c9f1f1fb50c0800d9520445eb3e536917705adb1ca990bf55fb452c0bb64736f6c63430008130033",
  "linkReferences": {},
  "deployedLinkReferences": {}
}