{
  "_format": "hh-sol-artifact-1",
  "contractName": "ExperienceCertificateNFT",
  "sourceName": "contracts/ExperienceCertificateNFT.sol",
  "abi": [
    {
      "inputs": [],
      "stateMutability": "nonpayable",
      "type": "constructor"
    },
    {
      "anonymous": false,
      "inputs": [
        {
          "indexed": true,
          "internalType": "address",
          "name": "owner",
          "type": "address"
        },
        {
          "indexed": true,
          "internalType": "address",
          "name": "approved",
          "type": "address"
        },
        {
          "indexed": true,
          "internalType": "uint256",
          "name": "tokenId",
          "type": "uint256"
        }
      ],
      "name": "Approval",
      "type": "event"
    },
    {
      "anonymous": false,
      "inputs": [
        {
          "indexed": true,
          "internalType": "address",
          "name": "owner",
          "type": "address"
        },
        {
          "indexed": true,
          "internalType": "address",
          "name": "operator",
          "type": "address"
        },
        {
          "indexed": false,
          "internalType": "bool",
          "name": "approved",
          "type": "bool"
        }
      ],
      "name": "ApprovalForAll",
      "type": "event"
    },
    {
      "anonymous": false,
      "inputs": [
        {
          "indexed": true,
          "internalType": "address",
          "name": "from",
          "type": "address"
        },
        {
          "indexed": true,
          "internalType": "address",
          "name": "to",
          "type": "address"
        },
        {
          "indexed": true,
          "internalType": "uint256",
          "name": "tokenId",
          "type": "uint256"
        }
      ],
      "name": "Transfer",
      "type": "event"
    },
    {
      "inputs": [
        {
          "internalType": "address",
          "name": "to",
          "type": "address"
        },
        {
          "internalType": "uint256",
          "name": "tokenId",
          "type": "uint256"
        }
      ],
      "name": "approve",
      "outputs": [],
      "stateMutability": "nonpayable",
      "type": "function"
    },
    {
      "inputs": [
        {
          "internalType": "address",
          "name": "owner",
          "type": "address"
        }
      ],
      "name": "balanceOf",
      "outputs": [
        {
          "internalType": "uint256",
          "name": "",
          "type": "uint256"
        }
      ],
      "stateMutability": "view",
      "type": "function"
    },
    {
      "inputs": [
        {
          "internalType": "uint256",
          "name": "tokenId",
          "type": "uint256"
        }
      ],
      "name": "getApproved",
      "outputs": [
        {
          "internalType": "address",
          "name": "",
          "type": "address"
        }
      ],
      "stateMutability": "view",
      "type": "function"
    },
    {
      "inputs": [
        {
          "internalType": "uint256",
          "name": "tokenId",
          "type": "uint256"
        }
      ],
      "name": "getCertificateById",
      "outputs": [
        {
          "internalType": "uint256",
          "name": "",
          "type": "uint256"
        },
        {
          "internalType": "address payable",
          "name": "",
          "type": "address"
        },
        {
          "internalType": "address payable",
          "name": "",
          "type": "address"
        },
        {
          "internalType": "string",
          "name": "",
          "type": "string"
        },
        {
          "internalType": "string",
          "name": "",
          "type": "string"
        },
        {
          "internalType": "string",
          "name": "",
          "type": "string"
        },
        {
          "internalType": "string",
          "name": "",
          "type": "string"
        },
        {
          "internalType": "string",
          "name": "",
          "type": "string"
        }
      ],
      "stateMutability": "view",
      "type": "function"
    },
    {
      "inputs": [
        {
          "internalType": "address",
          "name": "employee",
          "type": "address"
        }
      ],
      "name": "getEmployeeCertificates",
      "outputs": [
        {
          "components": [
            {
              "internalType": "uint256",
              "name": "tokenId",
              "type": "uint256"
            },
            {
              "internalType": "address payable",
              "name": "issuer",
              "type": "address"
            },
            {
              "internalType": "address payable",
              "name": "employee",
              "type": "address"
            },
            {
              "internalType": "string",
              "name": "company",
              "type": "string"
            },
            {
              "internalType": "string",
              "name": "employeeName",
              "type": "string"
            },
            {
              "internalType": "string",
              "name": "description",
              "type": "string"
            },
            {
              "internalType": "string",
              "name": "startDate",
              "type": "string"
            },
            {
              "internalType": "string",
              "name": "endDate",
              "type": "string"
            }
          ],
          "internalType": "struct ExperienceCertificateNFT.ExperienceCertificate[]",
          "name": "",
          "type": "tuple[]"
        }
      ],
      "stateMutability": "view",
      "type": "function"
    },
    {
      "inputs": [
        {
          "internalType": "address",
          "name": "organization",
          "type": "address"
        }
      ],
      "name": "getOrganizationCertificates",
      "outputs": [
        {
          "components": [
            {
              "internalType": "uint256",
              "name": "tokenId",
              "type": "uint256"
            },
            {
              "internalType": "address payable",
              "name": "issuer",
              "type": "address"
            },
            {
              "internalType": "address payable",
              "name": "employee",
              "type": "address"
            },
            {
              "internalType": "string",
              "name": "company",
              "type": "string"
            },
            {
              "internalType": "string",
              "name": "employeeName",
              "type": "string"
            },
            {
              "internalType": "string",
              "name": "description",
              "type": "string"
            },
            {
              "internalType": "string",
              "name": "startDate",
              "type": "string"
            },
            {
              "internalType": "string",
              "name": "endDate",
              "type": "string"
            }
          ],
          "internalType": "struct ExperienceCertificateNFT.ExperienceCertificate[]",
          "name": "",
          "type": "tuple[]"
        }
      ],
      "stateMutability": "view",
      "type": "function"
    },
    {
      "inputs": [
        {
          "internalType": "address",
          "name": "owner",
          "type": "address"
        },
        {
          "internalType": "address",
          "name": "operator",
          "type": "address"
        }
      ],
      "name": "isApprovedForAll",
      "outputs": [
        {
          "internalType": "bool",
          "name": "",
          "type": "bool"
        }
      ],
      "stateMutability": "view",
      "type": "function"
    },
    {
      "inputs": [
        {
          "internalType": "address",
          "name": "",
          "type": "address"
        }
      ],
      "name": "isEmployeeRegistered",
      "outputs": [
        {
          "internalType": "bool",
          "name": "",
          "type": "bool"
        }
      ],
      "stateMutability": "view",
      "type": "function"
    },
    {
      "inputs": [
        {
          "internalType": "address",
          "name": "",
          "type": "address"
        }
      ],
      "name": "isOrganizationRegistered",
      "outputs": [
        {
          "internalType": "bool",
          "name": "",
          "type": "bool"
        }
      ],
      "stateMutability": "view",
      "type": "function"
    },
    {
      "inputs": [],
      "name": "isUserEmployee",
      "outputs": [
        {
          "internalType": "bool",
          "name": "",
          "type": "bool"
        }
      ],
      "stateMutability": "view",
      "type": "function"
    },
    {
      "inputs": [],
      "name": "isUserOrganization",
      "outputs": [
        {
          "internalType": "bool",
          "name": "",
          "type": "bool"
        }
      ],
      "stateMutability": "view",
      "type": "function"
    },
    {
      "inputs": [
        {
          "internalType": "address",
          "name": "receiver",
          "type": "address"
        },
        {
          "internalType": "string",
          "name": "company",
          "type": "string"
        },
        {
          "internalType": "string",
          "name": "employeeName",
          "type": "string"
        },
        {
          "internalType": "string",
          "name": "description",
          "type": "string"
        },
        {
          "internalType": "string",
          "name": "startDate",
          "type": "string"
        },
        {
          "internalType": "string",
          "name": "endDate",
          "type": "string"
        }
      ],
      "name": "issueCertificate",
      "outputs": [
        {
          "internalType": "uint256",
          "name": "",
          "type": "uint256"
        }
      ],
      "stateMutability": "payable",
      "type": "function"
    },
    {
      "inputs": [],
      "name": "name",
      "outputs": [
        {
          "internalType": "string",
          "name": "",
          "type": "string"
        }
      ],
      "stateMutability": "view",
      "type": "function"
    },
    {
      "inputs": [
        {
          "internalType": "uint256",
          "name": "tokenId",
          "type": "uint256"
        }
      ],
      "name": "ownerOf",
      "outputs": [
        {
          "internalType": "address",
          "name": "",
          "type": "address"
        }
      ],
      "stateMutability": "view",
      "type": "function"
    },
    {
      "inputs": [],
      "name": "registerAsEmployee",
      "outputs": [],
      "stateMutability": "nonpayable",
      "type": "function"
    },
    {
      "inputs": [],
      "name": "registerAsOrganization",
      "outputs": [],
      "stateMutability": "nonpayable",
      "type": "function"
    },
    {
      "inputs": [
        {
          "internalType": "address",
          "name": "from",
          "type": "address"
        },
        {
          "internalType": "address",
          "name": "to",
          "type": "address"
        },
        {
          "internalType": "uint256",
          "name": "tokenId",
          "type": "uint256"
        }
      ],
      "name": "safeTransferFrom",
      "outputs": [],
      "stateMutability": "nonpayable",
      "type": "function"
    },
    {
      "inputs": [
        {
          "internalType": "address",
          "name": "from",
          "type": "address"
        },
        {
          "internalType": "address",
          "name": "to",
          "type": "address"
        },
        {
          "internalType": "uint256",
          "name": "tokenId",
          "type": "uint256"
        },
        {
          "internalType": "bytes",
          "name": "data",
          "type": "bytes"
        }
      ],
      "name": "safeTransferFrom",
      "outputs": [],
      "stateMutability": "nonpayable",
      "type": "function"
    },
    {
      "inputs": [
        {
          "internalType": "address",
          "name": "operator",
          "type": "address"
        },
        {
          "internalType": "bool",
          "name": "approved",
          "type": "bool"
        }
      ],
      "name": "setApprovalForAll",
      "outputs": [],
      "stateMutability": "nonpayable",
      "type": "function"
    },
    {
      "inputs": [
        {
          "internalType": "bytes4",
          "name": "interfaceId",
          "type": "bytes4"
        }
      ],
      "name": "supportsInterface",
      "outputs": [
        {
          "internalType": "bool",
          "name": "",
          "type": "bool"
        }
      ],
      "stateMutability": "view",
      "type": "function"
    },
    {
      "inputs": [],
      "name": "symbol",
      "outputs": [
        {
          "internalType": "string",
          "name": "",
          "type": "string"
        }
      ],
      "stateMutability": "view",
      "type": "function"
    },
    {
      "inputs": [
        {
          "internalType": "uint256",
          "name": "tokenId",
          "type": "uint256"
        }
      ],
      "name": "tokenURI",
      "outputs": [
        {
          "internalType": "string",
          "name": "",
          "type": "string"
        }
      ],
      "stateMutability": "view",
      "type": "function"
    },
    {
      "inputs": [
        {
          "internalType": "address",
          "name": "from",
          "type": "address"
        },
        {
          "internalType": "address",
          "name": "to",
          "type": "address"
        },
        {
          "internalType": "uint256",
          "name": "tokenId",
          "type": "uint256"
        }
      ],
      "name": "transferFrom",
      "outputs": [],
      "stateMutability": "nonpayable",
      "type": "function"
    },
    {
      "inputs": [
        {
          "internalType": "address",
          "name": "",
          "type": "address"
        }
      ],
      "name": "userRoles",
      "outputs": [
        {
          "internalType": "enum ExperienceCertificateNFT.UserType",
          "name": "",
          "type": "uint8"
        }
      ],
      "stateMutability": "view",
      "type": "function"
    },
    {
      "inputs": [
        {
          "internalType": "uint256",
          "name": "tokenId",
          "type": "uint256"
        },
        {
          "internalType": "address",
          "name": "issuer",
          "type": "address"
        }
      ],
      "name": "verifyCertificateAuthenticity",
      "outputs": [
        {
          "internalType": "bool",
          "name": "",
          "type": "bool"
        }
      ],
      "stateMutability": "view",
      "type": "function"
    },
    {
      "inputs": [
        {
          "internalType": "uint256",
          "name": "tokenId",
          "type": "uint256"
        },
        {
          "internalType": "address",
          "name": "employee",
          "type": "address"
        }
      ],
      "name": "verifyEmployeeAuthenticity",
      "outputs": [
        {
          "internalType": "bool",
          "name": "",
          "type": "bool"
        }
      ],
      "stateMutability": "view",
      "type": "function"
    }
  ],
  "bytecode": "0x60806040523480156200001157600080fd5b506040518060400160405280601681526020017f457870657269656e6365436572746966696361746573000000000000000000008152506040518060400160405280600381526020017f455850000000000000000000000000000000000000000000000000000000000081525081600090816200008f919062000324565b508060019081620000a1919062000324565b5050506200040b565b600081519050919050565b7f4e487b7100000000000000000000000000000000000000000000000000000000600052604160045260246000fd5b7f4e487b7100000000000000000000000000000000000000000000000000000000600052602260045260246000fd5b600060028204905060018216806200012c57607f821691505b602082108103620001425762000141620000e4565b5b50919050565b60008190508160005260206000209050919050565b60006020601f8301049050919050565b600082821b905092915050565b600060088302620001ac7fffffffffffffffffffffffffffffffffffffffffffffffffffffffffffffffff826200016d565b620001b886836200016d565b95508019841693508086168417925050509392505050565b6000819050919050565b6000819050919050565b600062000205620001ff620001f984620001d0565b620001da565b620001d0565b9050919050565b6000819050919050565b6200022183620001e4565b6200023962000230826200020c565b8484546200017a565b825550505050565b600090565b6200025062000241565b6200025d81848462000216565b505050565b5b8181101562000285576200027960008262000246565b60018101905062000263565b5050565b601f821115620002d4576200029e8162000148565b620002a9846200015d565b81016020851015620002b9578190505b620002d1620002c8856200015d565b83018262000262565b50505b505050565b600082821c905092915050565b6000620002f960001984600802620002d9565b1980831691505092915050565b6000620003148383620002e6565b9150826002028217905092915050565b6200032f82620000aa565b67ffffffffffffffff8111156200034b576200034a620000b5565b5b62000357825462000113565b6200036482828562000289565b600060209050601f8311600181146200039c576000841562000387578287015190505b62000393858262000306565b86555062000403565b601f198416620003ac8662000148565b60005b82811015620003d657848901518255600182019150602085019450602081019050620003af565b86831015620003f65784890151620003f2601f891682620002e6565b8355505b6001600288020188555050505b505050505050565b6149dd806200041b6000396000f3fe6080604052600436106101815760003560e01c80639d735caf116100d1578063b88d4fde1161008a578063dc5db3bc11610064578063dc5db3bc146105e5578063de8c98fd14610610578063e985e9c514610640578063f01597201461067d57610181565b8063b88d4fde14610568578063c87b56dd14610591578063c89dc913146105ce57610181565b80639d735caf1461042d5780639d88ebb614610471578063a22cb465146104ae578063a47d31e8146104d7578063ac0696ab14610514578063af6f0eb71461055157610181565b806333edaec01161013e5780636352211e116101185780636352211e1461034b57806370a082311461038857806374d5e100146103c557806395d89b411461040257610181565b806333edaec0146102ba578063352ffda9146102e557806342842e0e1461032257610181565b806301ffc9a71461018657806306fdde03146101c3578063081812fc146101ee578063095ea7b31461022b57806313ca6af01461025457806323b872dd14610291575b600080fd5b34801561019257600080fd5b506101ad60048036038101906101a8919061331d565b6106ba565b6040516101ba9190613365565b60405180910390f35b3480156101cf57600080fd5b506101d861079c565b6040516101e59190613410565b60405180910390f35b3480156101fa57600080fd5b5061021560048036038101906102109190613468565b61082e565b60405161022291906134d6565b60405180910390f35b34801561023757600080fd5b50610252600480360381019061024d919061351d565b610874565b005b34801561026057600080fd5b5061027b6004803603810190610276919061355d565b61098b565b6040516102889190613365565b60405180910390f35b34801561029d57600080fd5b506102b860048036038101906102b3919061359d565b6109fa565b005b3480156102c657600080fd5b506102cf610a5a565b6040516102dc9190613365565b60405180910390f35b3480156102f157600080fd5b5061030c600480360381019061030791906135f0565b610ad5565b6040516103199190613365565b60405180910390f35b34801561032e57600080fd5b506103496004803603810190610344919061359d565b610af5565b005b34801561035757600080fd5b50610372600480360381019061036d9190613468565b610b15565b60405161037f91906134d6565b60405180910390f35b34801561039457600080fd5b506103af60048036038101906103aa91906135f0565b610b9b565b6040516103bc919061362c565b60405180910390f35b3480156103d157600080fd5b506103ec60048036038101906103e791906135f0565b610c52565b6040516103f991906136be565b60405180910390f35b34801561040e57600080fd5b50610417610c72565b6040516104249190613410565b60405180910390f35b34801561043957600080fd5b50610454600480360381019061044f9190613468565b610d04565b6040516104689897969594939291906136fa565b60405180910390f35b34801561047d57600080fd5b50610498600480360381019061049391906135f0565b611108565b6040516104a59190613365565b60405180910390f35b3480156104ba57600080fd5b506104d560048036038101906104d091906137c7565b611128565b005b3480156104e357600080fd5b506104fe60048036038101906104f991906135f0565b61113e565b60405161050b91906139fd565b60405180910390f35b34801561052057600080fd5b5061053b600480360381019061053691906135f0565b611748565b60405161054891906139fd565b60405180910390f35b34801561055d57600080fd5b50610566611c46565b005b34801561057457600080fd5b5061058f600480360381019061058a9190613b54565b611dbb565b005b34801561059d57600080fd5b506105b860048036038101906105b39190613468565b611e1d565b6040516105c59190613410565b60405180910390f35b3480156105da57600080fd5b506105e3611e85565b005b3480156105f157600080fd5b506105fa611ffa565b6040516106079190613365565b60405180910390f35b61062a60048036038101906106259190613c78565b612074565b604051610637919061362c565b60405180910390f35b34801561064c57600080fd5b5061066760048036038101906106629190613d91565b61234b565b6040516106749190613365565b60405180910390f35b34801561068957600080fd5b506106a4600480360381019061069f919061355d565b6123df565b6040516106b19190613365565b60405180910390f35b60007f80ac58cd000000000000000000000000000000000000000000000000000000007bffffffffffffffffffffffffffffffffffffffffffffffffffffffff1916827bffffffffffffffffffffffffffffffffffffffffffffffffffffffff1916148061078557507f5b5e139f000000000000000000000000000000000000000000000000000000007bffffffffffffffffffffffffffffffffffffffffffffffffffffffff1916827bffffffffffffffffffffffffffffffffffffffffffffffffffffffff1916145b8061079557506107948261244e565b5b9050919050565b6060600080546107ab90613e00565b80601f01602080910402602001604051908101604052809291908181526020018280546107d790613e00565b80156108245780601f106107f957610100808354040283529160200191610824565b820191906000526020600020905b81548152906001019060200180831161080757829003601f168201915b5050505050905090565b6000610839826124b8565b6004600083815260200190815260200160002060009054906101000a900473ffffffffffffffffffffffffffffffffffffffff169050919050565b600061087f82610b15565b90508073ffffffffffffffffffffffffffffffffffffffff168373ffffffffffffffffffffffffffffffffffffffff16036108ef576040517f08c379a00000000000000000000000000000000000000000000000000000000081526004016108e690613ea3565b60405180910390fd5b8073ffffffffffffffffffffffffffffffffffffffff1661090e612503565b73ffffffffffffffffffffffffffffffffffffffff16148061093d575061093c81610937612503565b61234b565b5b61097c576040517f08c379a000000000000000000000000000000000000000000000000000000000815260040161097390613f35565b60405180910390fd5b610986838361250b565b505050565b60008173ffffffffffffffffffffffffffffffffffffffff16600a600085815260200190815260200160002060010160009054906101000a900473ffffffffffffffffffffffffffffffffffffffff1673ffffffffffffffffffffffffffffffffffffffff1614905092915050565b610a0b610a05612503565b826125c4565b610a4a576040517f08c379a0000000000000000000000000000000000000000000000000000000008152600401610a4190613fc7565b60405180910390fd5b610a55838383612659565b505050565b600060016002811115610a7057610a6f613647565b5b600760003373ffffffffffffffffffffffffffffffffffffffff1673ffffffffffffffffffffffffffffffffffffffff16815260200190815260200160002060009054906101000a900460ff166002811115610acf57610ace613647565b5b14905090565b60096020528060005260406000206000915054906101000a900460ff1681565b610b1083838360405180602001604052806000815250611dbb565b505050565b600080610b2183612952565b9050600073ffffffffffffffffffffffffffffffffffffffff168173ffffffffffffffffffffffffffffffffffffffff1603610b92576040517f08c379a0000000000000000000000000000000000000000000000000000000008152600401610b8990614033565b60405180910390fd5b80915050919050565b60008073ffffffffffffffffffffffffffffffffffffffff168273ffffffffffffffffffffffffffffffffffffffff1603610c0b576040517f08c379a0000000000000000000000000000000000000000000000000000000008152600401610c02906140c5565b60405180910390fd5b600360008373ffffffffffffffffffffffffffffffffffffffff1673ffffffffffffffffffffffffffffffffffffffff168152602001908152602001600020549050919050565b60076020528060005260406000206000915054906101000a900460ff1681565b606060018054610c8190613e00565b80601f0160208091040260200160405190810160405280929190818152602001828054610cad90613e00565b8015610cfa5780601f10610ccf57610100808354040283529160200191610cfa565b820191906000526020600020905b815481529060010190602001808311610cdd57829003601f168201915b5050505050905090565b600080600060608060608060606000600a60008b815260200190815260200160002060405180610100016040529081600082015481526020016001820160009054906101000a900473ffffffffffffffffffffffffffffffffffffffff1673ffffffffffffffffffffffffffffffffffffffff1673ffffffffffffffffffffffffffffffffffffffff1681526020016002820160009054906101000a900473ffffffffffffffffffffffffffffffffffffffff1673ffffffffffffffffffffffffffffffffffffffff1673ffffffffffffffffffffffffffffffffffffffff168152602001600382018054610df890613e00565b80601f0160208091040260200160405190810160405280929190818152602001828054610e2490613e00565b8015610e715780601f10610e4657610100808354040283529160200191610e71565b820191906000526020600020905b815481529060010190602001808311610e5457829003601f168201915b50505050508152602001600482018054610e8a90613e00565b80601f0160208091040260200160405190810160405280929190818152602001828054610eb690613e00565b8015610f035780601f10610ed857610100808354040283529160200191610f03565b820191906000526020600020905b815481529060010190602001808311610ee657829003601f168201915b50505050508152602001600582018054610f1c90613e00565b80601f0160208091040260200160405190810160405280929190818152602001828054610f4890613e00565b8015610f955780601f10610f6a57610100808354040283529160200191610f95565b820191906000526020600020905b815481529060010190602001808311610f7857829003601f168201915b50505050508152602001600682018054610fae90613e00565b80601f0160208091040260200160405190810160405280929190818152602001828054610fda90613e00565b80156110275780601f10610ffc57610100808354040283529160200191611027565b820191906000526020600020905b81548152906001019060200180831161100a57829003601f168201915b5050505050815260200160078201805461104090613e00565b80601f016020809104026020016040519081016040528092919081815260200182805461106c90613e00565b80156110b95780601f1061108e576101008083540402835291602001916110b9565b820191906000526020600020905b81548152906001019060200180831161109c57829003601f168201915b5050505050815250509050806000015181602001518260400151836060015184608001518560a001518660c001518760e001519850985098509850985098509850985050919395975091939597565b60086020528060005260406000206000915054906101000a900460ff1681565b61113a611133612503565b838361298f565b5050565b6060600061114c6006612afb565b905060008060005b838110156111f357600a600060018361116d9190614114565b815260200190815260200160002060020160009054906101000a900473ffffffffffffffffffffffffffffffffffffffff1673ffffffffffffffffffffffffffffffffffffffff168673ffffffffffffffffffffffffffffffffffffffff16036111e05782806111dc90614148565b9350505b80806111eb90614148565b915050611154565b506000820361125b57600067ffffffffffffffff81111561121757611216613a29565b5b60405190808252806020026020018201604052801561125057816020015b61123d613240565b8152602001906001900390816112355790505b509350505050611743565b60008267ffffffffffffffff81111561127757611276613a29565b5b6040519080825280602002602001820160405280156112b057816020015b61129d613240565b8152602001906001900390816112955790505b50905060005b8481101561173a57600a60006001836112cf9190614114565b815260200190815260200160002060020160009054906101000a900473ffffffffffffffffffffffffffffffffffffffff1673ffffffffffffffffffffffffffffffffffffffff168773ffffffffffffffffffffffffffffffffffffffff16036117275760006001826113429190614114565b90506000600a600083815260200190815260200160002090508060405180610100016040529081600082015481526020016001820160009054906101000a900473ffffffffffffffffffffffffffffffffffffffff1673ffffffffffffffffffffffffffffffffffffffff1673ffffffffffffffffffffffffffffffffffffffff1681526020016002820160009054906101000a900473ffffffffffffffffffffffffffffffffffffffff1673ffffffffffffffffffffffffffffffffffffffff1673ffffffffffffffffffffffffffffffffffffffff16815260200160038201805461142e90613e00565b80601f016020809104026020016040519081016040528092919081815260200182805461145a90613e00565b80156114a75780601f1061147c576101008083540402835291602001916114a7565b820191906000526020600020905b81548152906001019060200180831161148a57829003601f168201915b505050505081526020016004820180546114c090613e00565b80601f01602080910402602001604051908101604052809291908181526020018280546114ec90613e00565b80156115395780601f1061150e57610100808354040283529160200191611539565b820191906000526020600020905b81548152906001019060200180831161151c57829003601f168201915b5050505050815260200160058201805461155290613e00565b80601f016020809104026020016040519081016040528092919081815260200182805461157e90613e00565b80156115cb5780601f106115a0576101008083540402835291602001916115cb565b820191906000526020600020905b8154815290600101906020018083116115ae57829003601f168201915b505050505081526020016006820180546115e490613e00565b80601f016020809104026020016040519081016040528092919081815260200182805461161090613e00565b801561165d5780601f106116325761010080835404028352916020019161165d565b820191906000526020600020905b81548152906001019060200180831161164057829003601f168201915b5050505050815260200160078201805461167690613e00565b80601f01602080910402602001604051908101604052809291908181526020018280546116a290613e00565b80156116ef5780601f106116c4576101008083540402835291602001916116ef565b820191906000526020600020905b8154815290600101906020018083116116d257829003601f168201915b50505050508152505084868151811061170b5761170a614190565b5b6020026020010181905250848061172190614148565b95505050505b808061173290614148565b9150506112b6565b50809450505050505b919050565b60606000600b60008473ffffffffffffffffffffffffffffffffffffffff1673ffffffffffffffffffffffffffffffffffffffff1681526020019081526020016000208054806020026020016040519081016040528092919081815260200182805480156117d557602002820191906000526020600020905b8154815260200190600101908083116117c1575b505050505090506000815167ffffffffffffffff8111156117f9576117f8613a29565b5b60405190808252806020026020018201604052801561183257816020015b61181f613240565b8152602001906001900390816118175790505b50905060005b8251811015611c3b57600a600084838151811061185857611857614190565b5b6020026020010151815260200190815260200160002060405180610100016040529081600082015481526020016001820160009054906101000a900473ffffffffffffffffffffffffffffffffffffffff1673ffffffffffffffffffffffffffffffffffffffff1673ffffffffffffffffffffffffffffffffffffffff1681526020016002820160009054906101000a900473ffffffffffffffffffffffffffffffffffffffff1673ffffffffffffffffffffffffffffffffffffffff1673ffffffffffffffffffffffffffffffffffffffff16815260200160038201805461194090613e00565b80601f016020809104026020016040519081016040528092919081815260200182805461196c90613e00565b80156119b95780601f1061198e576101008083540402835291602001916119b9565b820191906000526020600020905b81548152906001019060200180831161199c57829003601f168201915b505050505081526020016004820180546119d290613e00565b80601f01602080910402602001604051908101604052809291908181526020018280546119fe90613e00565b8015611a4b5780601f10611a2057610100808354040283529160200191611a4b565b820191906000526020600020905b815481529060010190602001808311611a2e57829003601f168201915b50505050508152602001600582018054611a6490613e00565b80601f0160208091040260200160405190810160405280929190818152602001828054611a9090613e00565b8015611add5780601f10611ab257610100808354040283529160200191611add565b820191906000526020600020905b815481529060010190602001808311611ac057829003601f168201915b50505050508152602001600682018054611af690613e00565b80601f0160208091040260200160405190810160405280929190818152602001828054611b2290613e00565b8015611b6f5780601f10611b4457610100808354040283529160200191611b6f565b820191906000526020600020905b815481529060010190602001808311611b5257829003601f168201915b50505050508152602001600782018054611b8890613e00565b80601f0160208091040260200160405190810160405280929190818152602001828054611bb490613e00565b8015611c015780601f10611bd657610100808354040283529160200191611c01565b820191906000526020600020905b815481529060010190602001808311611be457829003601f168201915b505050505081525050828281518110611c1d57611c1c614190565b5b60200260200101819052508080611c3390614148565b915050611838565b508092505050919050565b60006002811115611c5a57611c59613647565b5b600760003373ffffffffffffffffffffffffffffffffffffffff1673ffffffffffffffffffffffffffffffffffffffff16815260200190815260200160002060009054906101000a900460ff166002811115611cb957611cb8613647565b5b14611cf9576040517f08c379a0000000000000000000000000000000000000000000000000000000008152600401611cf09061420b565b60405180910390fd5b6001600760003373ffffffffffffffffffffffffffffffffffffffff1673ffffffffffffffffffffffffffffffffffffffff16815260200190815260200160002060006101000a81548160ff02191690836002811115611d5c57611d5b613647565b5b02179055506001600860003373ffffffffffffffffffffffffffffffffffffffff1673ffffffffffffffffffffffffffffffffffffffff16815260200190815260200160002060006101000a81548160ff021916908315150217905550565b611dcc611dc6612503565b836125c4565b611e0b576040517f08c379a0000000000000000000000000000000000000000000000000000000008152600401611e0290613fc7565b60405180910390fd5b611e1784848484612b09565b50505050565b6060611e28826124b8565b6000611e32612b65565b90506000815111611e525760405180602001604052806000815250611e7d565b80611e5c84612b7c565b604051602001611e6d929190614267565b6040516020818303038152906040525b915050919050565b60006002811115611e9957611e98613647565b5b600760003373ffffffffffffffffffffffffffffffffffffffff1673ffffffffffffffffffffffffffffffffffffffff16815260200190815260200160002060009054906101000a900460ff166002811115611ef857611ef7613647565b5b14611f38576040517f08c379a0000000000000000000000000000000000000000000000000000000008152600401611f2f9061420b565b60405180910390fd5b6002600760003373ffffffffffffffffffffffffffffffffffffffff1673ffffffffffffffffffffffffffffffffffffffff16815260200190815260200160002060006101000a81548160ff02191690836002811115611f9b57611f9a613647565b5b02179055506001600960003373ffffffffffffffffffffffffffffffffffffffff1673ffffffffffffffffffffffffffffffffffffffff16815260200190815260200160002060006101000a81548160ff021916908315150217905550565b600060028081111561200f5761200e613647565b5b600760003373ffffffffffffffffffffffffffffffffffffffff1673ffffffffffffffffffffffffffffffffffffffff16815260200190815260200160002060009054906101000a900460ff16600281111561206e5761206d613647565b5b14905090565b600060028081111561208957612088613647565b5b600760003373ffffffffffffffffffffffffffffffffffffffff1673ffffffffffffffffffffffffffffffffffffffff16815260200190815260200160002060009054906101000a900460ff1660028111156120e8576120e7613647565b5b14612128576040517f08c379a000000000000000000000000000000000000000000000000000000000815260040161211f906142fd565b60405180910390fd5b6121326006612c4a565b600061213e6006612afb565b905061214a3382612c60565b6040518061010001604052808281526020013373ffffffffffffffffffffffffffffffffffffffff1681526020018973ffffffffffffffffffffffffffffffffffffffff16815260200188815260200187815260200186815260200185815260200184815250600a60008381526020019081526020016000206000820151816000015560208201518160010160006101000a81548173ffffffffffffffffffffffffffffffffffffffff021916908373ffffffffffffffffffffffffffffffffffffffff16021790555060408201518160020160006101000a81548173ffffffffffffffffffffffffffffffffffffffff021916908373ffffffffffffffffffffffffffffffffffffffff160217905550606082015181600301908161227091906144c9565b50608082015181600401908161228691906144c9565b5060a082015181600501908161229c91906144c9565b5060c08201518160060190816122b291906144c9565b5060e08201518160070190816122c891906144c9565b50905050600b60003373ffffffffffffffffffffffffffffffffffffffff1673ffffffffffffffffffffffffffffffffffffffff16815260200190815260200160002081908060018154018082558091505060019003906000526020600020016000909190919091505561233d338983612659565b809150509695505050505050565b6000600560008473ffffffffffffffffffffffffffffffffffffffff1673ffffffffffffffffffffffffffffffffffffffff16815260200190815260200160002060008373ffffffffffffffffffffffffffffffffffffffff1673ffffffffffffffffffffffffffffffffffffffff16815260200190815260200160002060009054906101000a900460ff16905092915050565b60008173ffffffffffffffffffffffffffffffffffffffff16600a600085815260200190815260200160002060020160009054906101000a900473ffffffffffffffffffffffffffffffffffffffff1673ffffffffffffffffffffffffffffffffffffffff1614905092915050565b60007f01ffc9a7000000000000000000000000000000000000000000000000000000007bffffffffffffffffffffffffffffffffffffffffffffffffffffffff1916827bffffffffffffffffffffffffffffffffffffffffffffffffffffffff1916149050919050565b6124c181612c7e565b612500576040517f08c379a00000000000000000000000000000000000000000000000000000000081526004016124f790614033565b60405180910390fd5b50565b600033905090565b816004600083815260200190815260200160002060006101000a81548173ffffffffffffffffffffffffffffffffffffffff021916908373ffffffffffffffffffffffffffffffffffffffff160217905550808273ffffffffffffffffffffffffffffffffffffffff1661257e83610b15565b73ffffffffffffffffffffffffffffffffffffffff167f8c5be1e5ebec7d5bd14f71427d1e84f3dd0314c0f7b2291e5b200ac8c7c3b92560405160405180910390a45050565b6000806125d083610b15565b90508073ffffffffffffffffffffffffffffffffffffffff168473ffffffffffffffffffffffffffffffffffffffff1614806126125750612611818561234b565b5b8061265057508373ffffffffffffffffffffffffffffffffffffffff166126388461082e565b73ffffffffffffffffffffffffffffffffffffffff16145b91505092915050565b8273ffffffffffffffffffffffffffffffffffffffff1661267982610b15565b73ffffffffffffffffffffffffffffffffffffffff16146126cf576040517f08c379a00000000000000000000000000000000000000000000000000000000081526004016126c69061460d565b60405180910390fd5b600073ffffffffffffffffffffffffffffffffffffffff168273ffffffffffffffffffffffffffffffffffffffff160361273e576040517f08c379a00000000000000000000000000000000000000000000000000000000081526004016127359061469f565b60405180910390fd5b61274b8383836001612cbf565b8273ffffffffffffffffffffffffffffffffffffffff1661276b82610b15565b73ffffffffffffffffffffffffffffffffffffffff16146127c1576040517f08c379a00000000000000000000000000000000000000000000000000000000081526004016127b89061460d565b60405180910390fd5b6004600082815260200190815260200160002060006101000a81549073ffffffffffffffffffffffffffffffffffffffff02191690556001600360008573ffffffffffffffffffffffffffffffffffffffff1673ffffffffffffffffffffffffffffffffffffffff168152602001908152602001600020600082825403925050819055506001600360008473ffffffffffffffffffffffffffffffffffffffff1673ffffffffffffffffffffffffffffffffffffffff16815260200190815260200160002060008282540192505081905550816002600083815260200190815260200160002060006101000a81548173ffffffffffffffffffffffffffffffffffffffff021916908373ffffffffffffffffffffffffffffffffffffffff160217905550808273ffffffffffffffffffffffffffffffffffffffff168473ffffffffffffffffffffffffffffffffffffffff167fddf252ad1be2c89b69c2b068fc378daa952ba7f163c4a11628f55a4df523b3ef60405160405180910390a461294d8383836001612cc5565b505050565b60006002600083815260200190815260200160002060009054906101000a900473ffffffffffffffffffffffffffffffffffffffff169050919050565b8173ffffffffffffffffffffffffffffffffffffffff168373ffffffffffffffffffffffffffffffffffffffff16036129fd576040517f08c379a00000000000000000000000000000000000000000000000000000000081526004016129f49061470b565b60405180910390fd5b80600560008573ffffffffffffffffffffffffffffffffffffffff1673ffffffffffffffffffffffffffffffffffffffff16815260200190815260200160002060008473ffffffffffffffffffffffffffffffffffffffff1673ffffffffffffffffffffffffffffffffffffffff16815260200190815260200160002060006101000a81548160ff0219169083151502179055508173ffffffffffffffffffffffffffffffffffffffff168373ffffffffffffffffffffffffffffffffffffffff167f17307eab39ab6107e8899845ad3d59bd9653f200f220920489ca2b5937696c3183604051612aee9190613365565b60405180910390a3505050565b600081600001549050919050565b612b14848484612659565b612b2084848484612ccb565b612b5f576040517f08c379a0000000000000000000000000000000000000000000000000000000008152600401612b569061479d565b60405180910390fd5b50505050565b606060405180602001604052806000815250905090565b606060006001612b8b84612e52565b01905060008167ffffffffffffffff811115612baa57612ba9613a29565b5b6040519080825280601f01601f191660200182016040528015612bdc5781602001600182028036833780820191505090505b509050600082602001820190505b600115612c3f578080600190039150507f3031323334353637383961626364656600000000000000000000000000000000600a86061a8153600a8581612c3357612c326147bd565b5b04945060008503612bea575b819350505050919050565b6001816000016000828254019250508190555050565b612c7a828260405180602001604052806000815250612fa5565b5050565b60008073ffffffffffffffffffffffffffffffffffffffff16612ca083612952565b73ffffffffffffffffffffffffffffffffffffffff1614159050919050565b50505050565b50505050565b6000612cec8473ffffffffffffffffffffffffffffffffffffffff16613000565b15612e45578373ffffffffffffffffffffffffffffffffffffffff1663150b7a02612d15612503565b8786866040518563ffffffff1660e01b8152600401612d379493929190614841565b6020604051808303816000875af1925050508015612d7357506040513d601f19601f82011682018060405250810190612d7091906148a2565b60015b612df5573d8060008114612da3576040519150601f19603f3d011682016040523d82523d6000602084013e612da8565b606091505b506000815103612ded576040517f08c379a0000000000000000000000000000000000000000000000000000000008152600401612de49061479d565b60405180910390fd5b805181602001fd5b63150b7a0260e01b7bffffffffffffffffffffffffffffffffffffffffffffffffffffffff1916817bffffffffffffffffffffffffffffffffffffffffffffffffffffffff191614915050612e4a565b600190505b949350505050565b600080600090507a184f03e93ff9f4daa797ed6e38ed64bf6a1f0100000000000000008310612eb0577a184f03e93ff9f4daa797ed6e38ed64bf6a1f0100000000000000008381612ea657612ea56147bd565b5b0492506040810190505b6d04ee2d6d415b85acef81000000008310612eed576d04ee2d6d415b85acef81000000008381612ee357612ee26147bd565b5b0492506020810190505b662386f26fc100008310612f1c57662386f26fc100008381612f1257612f116147bd565b5b0492506010810190505b6305f5e1008310612f45576305f5e1008381612f3b57612f3a6147bd565b5b0492506008810190505b6127108310612f6a576127108381612f6057612f5f6147bd565b5b0492506004810190505b60648310612f8d5760648381612f8357612f826147bd565b5b0492506002810190505b600a8310612f9c576001810190505b80915050919050565b612faf8383613023565b612fbc6000848484612ccb565b612ffb576040517f08c379a0000000000000000000000000000000000000000000000000000000008152600401612ff29061479d565b60405180910390fd5b505050565b6000808273ffffffffffffffffffffffffffffffffffffffff163b119050919050565b600073ffffffffffffffffffffffffffffffffffffffff168273ffffffffffffffffffffffffffffffffffffffff1603613092576040517f08c379a00000000000000000000000000000000000000000000000000000000081526004016130899061491b565b60405180910390fd5b61309b81612c7e565b156130db576040517f08c379a00000000000000000000000000000000000000000000000000000000081526004016130d290614987565b60405180910390fd5b6130e9600083836001612cbf565b6130f281612c7e565b15613132576040517f08c379a000000000000000000000000000000000000000000000000000000000815260040161312990614987565b60405180910390fd5b6001600360008473ffffffffffffffffffffffffffffffffffffffff1673ffffffffffffffffffffffffffffffffffffffff16815260200190815260200160002060008282540192505081905550816002600083815260200190815260200160002060006101000a81548173ffffffffffffffffffffffffffffffffffffffff021916908373ffffffffffffffffffffffffffffffffffffffff160217905550808273ffffffffffffffffffffffffffffffffffffffff16600073ffffffffffffffffffffffffffffffffffffffff167fddf252ad1be2c89b69c2b068fc378daa952ba7f163c4a11628f55a4df523b3ef60405160405180910390a461323c600083836001612cc5565b5050565b60405180610100016040528060008152602001600073ffffffffffffffffffffffffffffffffffffffff168152602001600073ffffffffffffffffffffffffffffffffffffffff16815260200160608152602001606081526020016060815260200160608152602001606081525090565b6000604051905090565b600080fd5b600080fd5b60007fffffffff0000000000000000000000000000000000000000000000000000000082169050919050565b6132fa816132c5565b811461330557600080fd5b50565b600081359050613317816132f1565b92915050565b600060208284031215613333576133326132bb565b5b600061334184828501613308565b91505092915050565b60008115159050919050565b61335f8161334a565b82525050565b600060208201905061337a6000830184613356565b92915050565b600081519050919050565b600082825260208201905092915050565b60005b838110156133ba57808201518184015260208101905061339f565b60008484015250505050565b6000601f19601f8301169050919050565b60006133e282613380565b6133ec818561338b565b93506133fc81856020860161339c565b613405816133c6565b840191505092915050565b6000602082019050818103600083015261342a81846133d7565b905092915050565b6000819050919050565b61344581613432565b811461345057600080fd5b50565b6000813590506134628161343c565b92915050565b60006020828403121561347e5761347d6132bb565b5b600061348c84828501613453565b91505092915050565b600073ffffffffffffffffffffffffffffffffffffffff82169050919050565b60006134c082613495565b9050919050565b6134d0816134b5565b82525050565b60006020820190506134eb60008301846134c7565b92915050565b6134fa816134b5565b811461350557600080fd5b50565b600081359050613517816134f1565b92915050565b60008060408385031215613534576135336132bb565b5b600061354285828601613508565b925050602061355385828601613453565b9150509250929050565b60008060408385031215613574576135736132bb565b5b600061358285828601613453565b925050602061359385828601613508565b9150509250929050565b6000806000606084860312156135b6576135b56132bb565b5b60006135c486828701613508565b93505060206135d586828701613508565b92505060406135e686828701613453565b9150509250925092565b600060208284031215613606576136056132bb565b5b600061361484828501613508565b91505092915050565b61362681613432565b82525050565b6000602082019050613641600083018461361d565b92915050565b7f4e487b7100000000000000000000000000000000000000000000000000000000600052602160045260246000fd5b6003811061368757613686613647565b5b50565b600081905061369882613676565b919050565b60006136a88261368a565b9050919050565b6136b88161369d565b82525050565b60006020820190506136d360008301846136af565b92915050565b60006136e482613495565b9050919050565b6136f4816136d9565b82525050565b600061010082019050613710600083018b61361d565b61371d602083018a6136eb565b61372a60408301896136eb565b818103606083015261373c81886133d7565b9050818103608083015261375081876133d7565b905081810360a083015261376481866133d7565b905081810360c083015261377881856133d7565b905081810360e083015261378c81846133d7565b90509998505050505050505050565b6137a48161334a565b81146137af57600080fd5b50565b6000813590506137c18161379b565b92915050565b600080604083850312156137de576137dd6132bb565b5b60006137ec85828601613508565b92505060206137fd858286016137b2565b9150509250929050565b600081519050919050565b600082825260208201905092915050565b6000819050602082019050919050565b61383c81613432565b82525050565b61384b816136d9565b82525050565b600082825260208201905092915050565b600061386d82613380565b6138778185613851565b935061388781856020860161339c565b613890816133c6565b840191505092915050565b6000610100830160008301516138b46000860182613833565b5060208301516138c76020860182613842565b5060408301516138da6040860182613842565b50606083015184820360608601526138f28282613862565b9150506080830151848203608086015261390c8282613862565b91505060a083015184820360a08601526139268282613862565b91505060c083015184820360c08601526139408282613862565b91505060e083015184820360e086015261395a8282613862565b9150508091505092915050565b6000613973838361389b565b905092915050565b6000602082019050919050565b600061399382613807565b61399d8185613812565b9350836020820285016139af85613823565b8060005b858110156139eb57848403895281516139cc8582613967565b94506139d78361397b565b925060208a019950506001810190506139b3565b50829750879550505050505092915050565b60006020820190508181036000830152613a178184613988565b905092915050565b600080fd5b600080fd5b7f4e487b7100000000000000000000000000000000000000000000000000000000600052604160045260246000fd5b613a61826133c6565b810181811067ffffffffffffffff82111715613a8057613a7f613a29565b5b80604052505050565b6000613a936132b1565b9050613a9f8282613a58565b919050565b600067ffffffffffffffff821115613abf57613abe613a29565b5b613ac8826133c6565b9050602081019050919050565b82818337600083830152505050565b6000613af7613af284613aa4565b613a89565b905082815260208101848484011115613b1357613b12613a24565b5b613b1e848285613ad5565b509392505050565b600082601f830112613b3b57613b3a613a1f565b5b8135613b4b848260208601613ae4565b91505092915050565b60008060008060808587031215613b6e57613b6d6132bb565b5b6000613b7c87828801613508565b9450506020613b8d87828801613508565b9350506040613b9e87828801613453565b925050606085013567ffffffffffffffff811115613bbf57613bbe6132c0565b5b613bcb87828801613b26565b91505092959194509250565b600067ffffffffffffffff821115613bf257613bf1613a29565b5b613bfb826133c6565b9050602081019050919050565b6000613c1b613c1684613bd7565b613a89565b905082815260208101848484011115613c3757613c36613a24565b5b613c42848285613ad5565b509392505050565b600082601f830112613c5f57613c5e613a1f565b5b8135613c6f848260208601613c08565b91505092915050565b60008060008060008060c08789031215613c9557613c946132bb565b5b6000613ca389828a01613508565b965050602087013567ffffffffffffffff811115613cc457613cc36132c0565b5b613cd089828a01613c4a565b955050604087013567ffffffffffffffff811115613cf157613cf06132c0565b5b613cfd89828a01613c4a565b945050606087013567ffffffffffffffff811115613d1e57613d1d6132c0565b5b613d2a89828a01613c4a565b935050608087013567ffffffffffffffff811115613d4b57613d4a6132c0565b5b613d5789828a01613c4a565b92505060a087013567ffffffffffffffff811115613d7857613d776132c0565b5b613d8489828a01613c4a565b9150509295509295509295565b60008060408385031215613da857613da76132bb565b5b6000613db685828601613508565b9250506020613dc785828601613508565b9150509250929050565b7f4e487b7100000000000000000000000000000000000000000000000000000000600052602260045260246000fd5b60006002820490506001821680613e1857607f821691505b602082108103613e2b57613e2a613dd1565b5b50919050565b7f4552433732313a20617070726f76616c20746f2063757272656e74206f776e6560008201527f7200000000000000000000000000000000000000000000000000000000000000602082015250565b6000613e8d60218361338b565b9150613e9882613e31565b604082019050919050565b60006020820190508181036000830152613ebc81613e80565b9050919050565b7f4552433732313a20617070726f76652063616c6c6572206973206e6f7420746f60008201527f6b656e206f776e6572206f7220617070726f76656420666f7220616c6c000000602082015250565b6000613f1f603d8361338b565b9150613f2a82613ec3565b604082019050919050565b60006020820190508181036000830152613f4e81613f12565b9050919050565b7f4552433732313a2063616c6c6572206973206e6f7420746f6b656e206f776e6560008201527f72206f7220617070726f76656400000000000000000000000000000000000000602082015250565b6000613fb1602d8361338b565b9150613fbc82613f55565b604082019050919050565b60006020820190508181036000830152613fe081613fa4565b9050919050565b7f4552433732313a20696e76616c696420746f6b656e2049440000000000000000600082015250565b600061401d60188361338b565b915061402882613fe7565b602082019050919050565b6000602082019050818103600083015261404c81614010565b9050919050565b7f4552433732313a2061646472657373207a65726f206973206e6f74206120766160008201527f6c6964206f776e65720000000000000000000000000000000000000000000000602082015250565b60006140af60298361338b565b91506140ba82614053565b604082019050919050565b600060208201905081810360008301526140de816140a2565b9050919050565b7f4e487b7100000000000000000000000000000000000000000000000000000000600052601160045260246000fd5b600061411f82613432565b915061412a83613432565b9250828201905080821115614142576141416140e5565b5b92915050565b600061415382613432565b91507fffffffffffffffffffffffffffffffffffffffffffffffffffffffffffffffff8203614185576141846140e5565b5b600182019050919050565b7f4e487b7100000000000000000000000000000000000000000000000000000000600052603260045260246000fd5b7f5573657220616c726561647920686173206120726f6c65000000000000000000600082015250565b60006141f560178361338b565b9150614200826141bf565b602082019050919050565b60006020820190508181036000830152614224816141e8565b9050919050565b600081905092915050565b600061424182613380565b61424b818561422b565b935061425b81856020860161339c565b80840191505092915050565b60006142738285614236565b915061427f8284614236565b91508190509392505050565b7f4f6e6c79206f7267616e697a6174696f6e732063616e2069737375652063657260008201527f7469666963617465730000000000000000000000000000000000000000000000602082015250565b60006142e760298361338b565b91506142f28261428b565b604082019050919050565b60006020820190508181036000830152614316816142da565b9050919050565b60008190508160005260206000209050919050565b60006020601f8301049050919050565b600082821b905092915050565b60006008830261437f7fffffffffffffffffffffffffffffffffffffffffffffffffffffffffffffffff82614342565b6143898683614342565b95508019841693508086168417925050509392505050565b6000819050919050565b60006143c66143c16143bc84613432565b6143a1565b613432565b9050919050565b6000819050919050565b6143e0836143ab565b6143f46143ec826143cd565b84845461434f565b825550505050565b600090565b6144096143fc565b6144148184846143d7565b505050565b5b818110156144385761442d600082614401565b60018101905061441a565b5050565b601f82111561447d5761444e8161431d565b61445784614332565b81016020851015614466578190505b61447a61447285614332565b830182614419565b50505b505050565b600082821c905092915050565b60006144a060001984600802614482565b1980831691505092915050565b60006144b9838361448f565b9150826002028217905092915050565b6144d282613380565b67ffffffffffffffff8111156144eb576144ea613a29565b5b6144f58254613e00565b61450082828561443c565b600060209050601f8311600181146145335760008415614521578287015190505b61452b85826144ad565b865550614593565b601f1984166145418661431d565b60005b8281101561456957848901518255600182019150602085019450602081019050614544565b868310156145865784890151614582601f89168261448f565b8355505b6001600288020188555050505b505050505050565b7f4552433732313a207472616e736665722066726f6d20696e636f72726563742060008201527f6f776e6572000000000000000000000000000000000000000000000000000000602082015250565b60006145f760258361338b565b91506146028261459b565b604082019050919050565b60006020820190508181036000830152614626816145ea565b9050919050565b7f4552433732313a207472616e7366657220746f20746865207a65726f2061646460008201527f7265737300000000000000000000000000000000000000000000000000000000602082015250565b600061468960248361338b565b91506146948261462d565b604082019050919050565b600060208201905081810360008301526146b88161467c565b9050919050565b7f4552433732313a20617070726f766520746f2063616c6c657200000000000000600082015250565b60006146f560198361338b565b9150614700826146bf565b602082019050919050565b60006020820190508181036000830152614724816146e8565b9050919050565b7f4552433732313a207472616e7366657220746f206e6f6e20455243373231526560008201527f63656976657220696d706c656d656e7465720000000000000000000000000000602082015250565b600061478760328361338b565b91506147928261472b565b604082019050919050565b600060208201905081810360008301526147b68161477a565b9050919050565b7f4e487b7100000000000000000000000000000000000000000000000000000000600052601260045260246000fd5b600081519050919050565b600082825260208201905092915050565b6000614813826147ec565b61481d81856147f7565b935061482d81856020860161339c565b614836816133c6565b840191505092915050565b600060808201905061485660008301876134c7565b61486360208301866134c7565b614870604083018561361d565b81810360608301526148828184614808565b905095945050505050565b60008151905061489c816132f1565b92915050565b6000602082840312156148b8576148b76132bb565b5b60006148c68482850161488d565b91505092915050565b7f4552433732313a206d696e7420746f20746865207a65726f2061646472657373600082015250565b600061490560208361338b565b9150614910826148cf565b602082019050919050565b60006020820190508181036000830152614934816148f8565b9050919050565b7f4552433732313a20746f6b656e20616c7265616479206d696e74656400000000600082015250565b6000614971601c8361338b565b915061497c8261493b565b602082019050919050565b600060208201905081810360008301526149a081614964565b905091905056fea26469706673582212202e6455b84b6f86c293bb311b678230868c23a832fbcc28708f5369aaa7be499864736f6c63430008130033",
  "linkReferences": {},
  "deployedLinkReferences": {}
}